:020000040000FA
:0600000031EF08F01200D0
:020006001200E6
:06000800A3EF04F012005A
:02000E000200EE
:100010008E100000E7010000040000007E100000C8
:08002000C00100001000000007
:08002800D9CFE6FFE552E7CF56
:10003000D9FF1200D9CFE6FFE1CFD9FFFD0EDBCF0C
:10004000E9FFFE0EDBCFEAFFEECF0BF0EFCF0CF0B7
:100050002E0E0B1801E10C5017E0290E0B1801E1D0
:100060000C5001E197D0240E0B1801E10C5001E176
:1000700091D01F0E0B1801E10C5006E00B5001E06F
:1000800010D10C5001E00DD1FD0EDBCFE9FFFE0ECB
:10009000DBCFEAFF030EE926000EEA22EECF0FF0D7
:1000A000EECF10F0EECF11F0EFCF12F00FC0E6FF61
:1000B00010C0E6FF11C0E6FF12C0E6FF93EC05F0AA
:1000C000E552E7CF12F0E552E7CF11F0E552E7CF66
:1000D00010F0E552E7CF0FF000010F50045C0B6EFB
:1000E000105005580C6E115006580D6E12500758DE
:1000F0000E6E920E0B5C000E0C58000E0D58000E8A
:100100000E5816E2FD0EDBCFE9FFFE0EDBCFEAFF55
:10011000020EE926000EEA22010EEF6EAFEC07F0A8
:10012000FD0EDBCFE9FFFE0EDBCFEAFF1F0EB7D0DF
:10013000FD0EDBCFE9FFFE0EDBCFEAFF020EE92664
:10014000000EEA22020EEF6EADEC07F093EC05F024
:1001500004C00BF005C00CF006C00DF007C00EF097
:10016000FD0EDBCFE9FFFE0EDBCFEAFF030EE92633
:10017000000EEA2204C0EEFF0CC0EEFF0DC0EEFF41
:100180000EC0EEFFFD0EDBCFE9FFFE0EDBCFEAFF78
:10019000240E85D0FD0EDBCFE9FFFE0EDBCFEAFF9C
:1001A000030EE926000EEA22EECF0FF0EECF10F09C
:1001B000EECF11F0EFCF12F00FC0E6FF10C0E6FF58
:1001C00011C0E6FF12C0E6FF93EC05F0E552E7CF61
:1001D00012F0E552E7CF11F0E552E7CF10F0E5520B
:1001E000E7CF0FF000010F50045C0B6E1050055864
:1001F0000C6E115006580D6E125007580E6E920E6E
:100200000B5C000E0C58000E0D58000E0E5816E236
:10021000FD0EDBCFE9FFFE0EDBCFEAFF020EE92683
:10022000000EEA22020EEF6EADEC07F0FD0EDBCF02
:10023000E9FFFE0EDBCFEAFF290E31D0FD0EDBCF4A
:10024000E9FFFE0EDBCFEAFF020EE926000EEA22EE
:10025000010EEF6EAFEC07F093EC05F004C00BF06D
:1002600005C00CF006C00DF007C00EF0FD0EDBCF90
:10027000E9FFFE0EDBCFEAFF030EE926000EEA22BD
:1002800004C0EEFF0CC0EEFF0DC0EEFF0EC0EEFF8F
:10029000FD0EDBCFE9FFFE0EDBCFEAFF2E0EEE6E8A
:0A02A000ED6AE552E7CFD9FF120026
:0602AA00D9CFE6FFE1CF11
:1002B000D9FFFB0EDBCF0BF0FC0EDBCF0CF00A0EF0
:1002C0000C02F3CF0CF00B02F4500C26FD0EDB50A9
:1002D000F324E96EFE0EDB500C20EA6EEE6AED6A46
:1002E000FB0EDBCF0BF0FC0EDBCF0CF00A0E0C028A
:1002F000F3CF0CF00B02F3CF0BF0F4500C26FD0EF5
:10030000DB50F324E96EFE0EDB500C20EA6E020E89
:10031000E926000EEA22EF6AFB0EDBCF0BF0FC0EA3
:10032000DBCF0CF00A0E0C02F3CF0CF00B02F3CF74
:100330000BF0F4500C26FD0EDB50F324E96EFE0E9C
:10034000DB500C20EA6E040EE926000EEA22F90EBC
:10035000DBCFEEFFFA0EDBCFEDFFFB0EDBCF0BF0BA
:10036000FC0EDBCF0CF00A0E0C02F3CF0CF00B02EC
:10037000F3CF0BF0F4500C26FD0EDB50F324E96EA6
:10038000FE0EDB500C20EA6E030EE926000EEA2278
:10039000FB0EDBCFEFFFDBCF0DF0FC0EDBCF0EF063
:1003A0000D06000E0E5A500E0E02F3CF0EF00D0287
:1003B000F3CF0DF0F4500E26200E0D26010E0E2266
:1003C000FB0EDBCF0BF0FC0EDBCF0CF00A0E0C02A9
:1003D000F3CF0CF00B02F3CF0BF0F4500C26FD0E14
:1003E000DB50F324E96EFE0EDB500C20EA6E060EA5
:1003F000E926000EEA220DC0EEFF0EC0EDFF460E0C
:10040000E66E0B0EE66EFB0EDBCF0BF0FC0EDBCFC9
:100410000CF00A0E0C02F3CF0CF00B02F3CF0BF032
:10042000F4500C26020E0B26010E0C220BC0E6FF28
:100430000CC0E6FFE70EE66E010EE66E96EC03F0EA
:100440000D6E060EE15E0D50E552E7CFD9FF1200AA
:100450000101020E006F010E016F00C1E9FFEA6E9B
:10046000EE6AED6A00C1E9FF01C1EAFF020EE9266A
:10047000000EEA22EF6A00C1E9FF01C1EAFF030EA4
:10048000E926000EEA22EF6ACA0EE66E040EE66E58
:10049000010EE66EE66A020EE66E010EE66E05DFFE
:1004A0000B6E060EE15E0B50E40EE66E040EE66E79
:1004B000020EE66EE66A020EE66E010EE66EF5DEEE
:1004C0000B6E060EE15E0B501200D9CFE6FFE1CFB6
:1004D000D9FF020EE126DE6ADD6ADF2A010EFDE3A6
:1004E000DB2AFBD7D9CFE6FFE1CFD9FF020EE12609
:0E04F000DE68DD6ADF06010EFDE2DB06FBD7EB
:0204FE00D9CF54
:10050000E6FFE1CFD9FFFD0EDBCFE9FFFE0EDBCF2B
:10051000EAFFEF6AE552E7CFD9FF1200800EE66EE0
:10052000030EE66EE66A4AEC07F0E552E552E55244
:10053000959083801200D9CFE6FFE1CFD9FFFD0E61
:10054000DBCFE9FFFE0EDBCFEAFFEF50010A37E019
:10055000010A01E0C9D0E2DFFD0EDBCFE9FFFE0EAC
:10056000DBCFEAFF050EE926000EEA22EF6A93ECE4
:1005700005F004C00BF005C00CF006C00DF007C07C
:100580000EF0FD0EDBCFE9FFFE0EDBCFEAFFEE52F1
:1005900004C0EEFF0CC0EEFF0DC0EEFF0EC0EEFF7C
:1005A000FD0EDBCFE9FFFE0EDBCFEAFF050EE926ED
:1005B000000EEA22EF50E66EA2D8E5528CD0FD0E76
:1005C000DBCFE9FFFE0EDBCFEAFFEE52EECF0FF0FE
:1005D000EECF10F0EECF11F0EFCF12F00FC0E6FF2C
:1005E00010C0E6FF11C0E6FF12C0E6FF93EC05F075
:1005F000E552E7CF12F0E552E7CF11F0E552E7CF31
:1006000010F0E552E7CF0FF000010F50045C0B6EC5
:10061000105005580C6E115006580D6E12500758A8
:100620000E6E920E0B5C000E0C58000E0D58000E54
:100630000E5851E3FD0EDBCFE9FFFE0EDBCFEAFFE4
:10064000050EE926000EEA22EF2AFD0EDBCFE9FFB8
:10065000FE0EDBCFEAFF050EE926000EEA22EFCF01
:100660000BF00F0EE76E0B18E8AE02D0E73402D0A5
:10067000E7500B5C0BE3FD0EDBCFE9FFFE0EDBCF9B
:10068000EAFF050EE926000EEA22EF6AFD0EDBCF37
:10069000E9FFFE0EDBCFEAFF050EE926000EEA2297
:1006A000EF50E66E2CD8E55293EC05F005C00CF047
:1006B00006C00DF007C00EF0FD0EDBCFE9FFFE0E09
:1006C000DBCFEAFFEE5204C0EEFF0CC0EEFF0DC020
:1006D000EEFF0EC0EEFFFD0EDBCFE9FFFE0EDBCF1F
:1006E000EAFF010EEF6E07D0FD0EDBCFE9FFFE0E35
:1006F000DBCFEAFFEF6AE552E7CFD9FF1200D9CF8F
:10070000E6FFE1CFD9FFFE0EDBCFE9FFEA6AE9BEE3
:10071000EA68C00EE926010EEA22EF50E66ED0EC40
:0C07200007F0E552E552E7CFD9FF1200C8
:04072C00D9CFE6FF3C
:10073000E1CFD9FF040EE126FD0EDBCFE9FFFE0E6F
:10074000DBCFEAFFEECFDEFFEDCFDDFFF90EDBCF33
:100750000DF0FA0EDBCF0EF0DECFE6FFDDCFE6FFC9
:10076000FB0EDBCFE6FFFC0EDBCFE6FF04D00EC0B6
:10077000FAFF0D50F96EFBDFE552E552E552E55206
:10078000F3CF0BF0F4CF0CF0010EF31820E10C5076
:100790001EE1FD0EDBCFE9FFFE0EDBCFEAFFFB0E15
:1007A000DBCFEEFFFC0EDBCFEDFFD9CFE9FFDACFD9
:1007B000EAFFEE50ED104BE0FB0EDBCFE9FFFC0E45
:1007C000DBCFEAFFDECFEEFFDDCFEDFF64D0F90E29
:1007D000DBCF0DF0FA0EDBCF0EF0DECFE6FFDDCF84
:1007E000E6FFFB0EDBCFE6FFFC0EDBCFE6FF04D01F
:1007F0000EC0FAFF0D50F96EFBDFE552E552E552EF
:10080000E552F3CF0BF0F4CF0CF0010EF31830E10A
:100810000C502EE1020EDBCFE9FF030EDBCFEAFF27
:10082000FB0EDBCFEEFFFC0EDBCFEDFFFB0EDBCFD5
:10083000E9FFFC0EDBCFEAFFDECFEEFFDDCFEDFF01
:10084000D9CFE9FFDACFEAFFEE50ED1024E1FD0E3B
:10085000DBCFE9FFFE0EDBCFEAFF020EE926000E3A
:10086000EA22FB0EDBCFEEFFFC0EDBCFEDFF13D059
:10087000D9CFE9FFDACFEAFF020EEECFDBFF030E9E
:10088000EDCFDBFFDECFE9FFDDCFEAFFEECFDEFF0E
:10089000EDCFDDFF9CD7040EE15C02E2E16AE55298
:1008A000E16EE552E7CFD9FF1200D9CFE6FFE1CFE5
:1008B000D9FF020EE126FD0EDBCFE9FFFE0EDBCFF6
:1008C000EAFFEECFDEFFEDCFDDFFD9CFE9FFDACFD4
:1008D000EAFFEE50ED1025E0DECFE9FFDDCFEAFFC5
:1008E000EECF0BF0EFCF0CF0FD0EDBCFE9FFFE0EED
:1008F000DBCFEAFF0BC0EEFF0CC0EDFFDECFE9FF60
:10090000DDCFEAFFEE50ED100CE1FD0EDBCFE9FF8D
:10091000FE0EDBCFEAFF020EE926000EEA22EE6AA7
:10092000ED6ADECF0BF0DDCF0CF00BC0F3FF0CC097
:10093000F4FF020EE15C02E2E16AE552E16EE5528B
:06094000E7CFD9FF120011
:0A094600D8CFE4FFE0CFE4FFE46E39
:10095000DACFE4FFE2CFDAFFE9CFE4FFEACFE4FF4A
:10096000F6CFE4FFF7CFE4FFF5CFE4FFF3CFE4FFEA
:10097000F4CFE4FFFACFE4FF00EE00F00B0EE80442
:1009800003E3EECFE4FFFBD700EE0BF0080EE80424
:1009900003E3EECFE4FFFBD7E652D9CFE6FFE1CF8A
:1009A000D9FF020EE1260101D02B000ED123D22364
:1009B000D323C7D8FECFD7F1FDCFD8F1D7C113F0DD
:1009C00013C014F0136A0101D85101011310D96F3B
:1009D00014C0DAF100C1E9FF01C1EAFF040ED9C178
:1009E000EBFF050EDAC1EBFFE1CFDBF1E2CFDCF18B
:1009F00000C1E9FF01C1EAFF060EDBC1EBFF070EF4
:100A0000DCC1EBFFE70EE66E010EE66E55EC04F07E
:100A1000E552E552F3CFDEFFF4CFDDFF460EE66E82
:100A20000B0EE66E00C1E6FF01C1E6FFE70EE66EC3
:100A3000010EE66E96EC03F0136E060EE15E1350A7
:100A4000DECF00F1DDCF01F100C1E9FF01C1EAFF16
:100A5000040EE926000EEA22EFCFD8F100C1E9FF2B
:100A600001C1EAFF040EE926000EEA22EECF13F0E0
:100A7000EFCF14F014C013F0146A13C0D7F1D7C12C
:100A8000E8FFFE6ED8C1E8FFFD6E00C1E9FF01C1BD
:100A9000EAFF060EE926000EEA22EECFDBF1EDCFEB
:100AA000DCF1DBC1E1FFDCC1E2FF020EE15C02E24E
:100AB000E16AE552E16EE552E7CFD9FFE55200EE7B
:100AC00012F0080EE80403E3E5CFEDFFFBD700EEDC
:100AD0000AF00B0EE80403E3E5CFEDFFFBD7E5CF0B
:100AE000FAFFE5CFF4FFE5CFF3FFE5CFF5FFE5CF64
:100AF000F7FFE5CFF6FFE5CFEAFFE5CFE9FFE5CF6A
:100B0000DAFFE550E5CFE0FFE5CFD8FF10000101A7
:100B1000D06BD16BD26BD36BF28ED20EE66EEEEC55
:100B200007F0E5521200D0C104F0D1C105F0D2C1E6
:100B300006F0D3C107F01200F250040B01E0010EE1
:060B40001200F294120005
:0A0B4600D9CFE6FFE1CFD9FF040E7E
:100B5000E126FD0EDBCFDEFFDBCFDDFFFB0EDBCFC3
:100B600006F0FC0EDBCF07F0020E06C0DBFF030E23
:100B700007C0DBFFD9CFE9FFDACFEAFFEE50ED1077
:100B800020E0D950020FE96EDACFEAFFEE50ED1007
:100B900018E0DECFE9FFDDCFEAFF020EE926000E06
:100BA000EA22EFCF0BF0020EDBCFE9FF030EDBCF23
:100BB000EAFF020EE926000EEA22EF500B5C21E369
:100BC0000FD0D9CFE9FFDACFEAFFEE50ED100AE1FE
:100BD000D950020FE96EDACFEAFFEE50ED1002E1D4
:100BE000F36A13D0D9CFE9FFDACFEAFFEE50ED1068
:100BF0000BE0D950020FE96EDACFEAFFEE50ED10AC
:100C000003E1010EF36E01D0F36AF46A040EE15CB5
:100C100002E2E16AE552E16EE552E7CFD9FF120048
:100C2000D9CFE6FFE1CFD9FFFD0EDBCFE9FFFE0E06
:100C3000DBCFEAFFEF6AFD0EDBCFE9FFFE0EDBCF75
:100C4000EAFFEE52EF6AE552E7CFD9FF1200D9CFA3
:100C5000E6FFE1CFD9FFFD0EDBCFE9FFFE0EDBCFD4
:100C6000EAFFEF50010A12E0010A2EE19EAA1CD011
:100C7000B1EC07F0E66EFD0EDBCFE9FFFE0EDBCF39
:100C8000EAFFEE52E552E750EF6E16D0ACA214D058
:100C9000FD0EDBCFE9FFFE0EDBCFEAFFEE52EF5099
:100CA000E66E0AEC08F0E552FD0EDBCFE9FFFE0E22
:100CB000DBCFEAFFEF6A08D0FD0EDBCFE9FFFE0EC7
:100CC000DBCFEAFF010EEF6EE552E7CFD9FF12004E
:100CD0000E0EF66E000EF76E000EF86E01010900A2
:100CE000F550E26F0900F550E36F03E1E26701D0D0
:100CF0003DD00900F550DD6F0900F550DE6F0900A9
:100D0000F550DF6F09000900F550E96E0900F55054
:100D1000EA6E090009000900F550E06F0900F5507E
:100D2000E16F09000900F6CFE4F1F7CFE5F1F8CF64
:100D3000E6F1DDC1F6FFDEC1F7FFDFC1F8FF01011B
:100D4000E05302E1E15307E00900F550EE6EE007E1
:100D5000F8E2E107F9D7E4C1F6FFE5C1F7FFE6C124
:0E0D6000F8FF0101E207000EE35BBFD71200AF
:020D6E0028EC6F
:100D700002F087EC05F0FFD7D9CFE6FFE1CFD9FF2E
:100D80000F0EE1268F0ED3147009D36E330EE66E6C
:100D9000E66A3C0EE66E05EC07F0E552E552E552D8
:100DA00087EC05F0D9CFE6FFDACFE6FF10EC06F0CE
:100DB000E552E552ABEC07F0020EDB6A030EDB6A8C
:100DC000D950090FE66E000EDA20E66E7FEC02F0D5
:100DD000E552E552D9CFE6FFDACFE6FF27EC06F081
:100DE000E552E552D950020FE66E000EDA20E66EAB
:100DF0001AEC00F0E552E552D950090FE66E000EEC
:0A0E0000DA20E66E9BEC02F0E3D767
:060E0A00D9CFE6FFDACFAC
:100E1000E6FFE1CFD9FFE2CFDAFFAC6AAB6AFD0EA5
:100E2000DBB0AC88DBA202D0AC8CAB8CDBB4AC8E7C
:100E3000DBA602D0AB8801D0AB8ADBB8AC849E982D
:100E4000DBBAAB86DBAC02D09D8A01D09D9A9E9A1C
:100E5000DBAE02D09D8801D09D98FB0EDB50AF6EBB
:100E6000FB0EFC0EDBCF0CF00CC00BF00C6A0B5031
:100E7000B06EAC8AAB8E949C948EAC50100B04E098
:100E8000AC50800B01E1948CE552E5CFDAFFE7CF5F
:040E9000D9FF120074
:0C0E9400D9CFE6FFDACFE6FFE1CFD9FFAF
:100EA000E2CFDAFF3F0EC716C66AFD0EDB50C61250
:100EB000FB0EDB50C712FC0EDB50030A09E0010AEF
:100EC00004E0020A06E1C78C04D0C78CC68801D0B2
:100ED000C688FD0EDB50050A05E0010A05E194868F
:100EE000928A03D0948601D094969488949AC68A64
:0C0EF000E552E5CFDAFFE7CFD9FF120092
:040EFC00D9CFE6FF65
:100F0000E1CFD9FF040EE126DE6ADE6ADE6ADD6A21
:100F1000DD52DD52D9CFE9FFDACFEAFF100EEE5CE9
:100F2000270EEE58000EEE58000EEE580AE2D9CF0A
:100F3000E9FFDACFEAFFEE2A000EEE22EE22EE22E1
:100F4000E9D7040EE15C02E2E16AE552E16EE552A6
:100F5000E7CFD9FF12009490120082801200829095
:020F600012007D
:0E0F6200D9CFE6FFDACFE6FFE1CFD9FFE2CF2D
:100F7000DAFFE652F20E0101EB17ABAC03D0EB91B6
:100F8000ABB0EB81ABB4EB85ABB2EB87AE50DF6EB1
:100F9000DF50E552E552E5CFDAFFE7CFD9FF120087
:100FA000D9CFE6FFDACFE6FFE1CFD9FFE2CFDAFF14
:100FB000E652C950DF6E9E96C69EFD0EDB50C96E8E
:100FC000C6AE02D0FF0E03D09EA6FED7000EE5529D
:0C0FD000E552E5CFDAFFE7CFD9FF1200B1
:040FDC00D9CFE6FF84
:100FE000DACFE6FFE1CFD9FFE2CFDAFFFD0EDB502B
:100FF0007F0BD56ED76AD66AF294FD0EDBAE02D0B7
:10100000F28A01D0F29AD58EE552E5CFDAFFE7CF2A
:04101000D9FF1200F2
:0C101400D9CFE6FFDACFE6FFE1CFD9FF2D
:10102000E2CFDAFFACAC04D0AC900101EBB3AC8002
:10103000FD0EDB50AD6EE552E5CFDAFFE7CFD9FF0D
:0210400012009C
:0E104200000EF36E00EE00F0060E01D8120054
:10105000EA6002D0EE6AFCD7F350E9601200EE6A53
:02106000FCD7BB
:0E10620015EE00F025EE00F0F86A0A9C68EC2E
:0E10700006F003EC00F0B7EC06F0FBD7120020
:02107E00EE8200
:0E108000DCD6B2767EC2FEF6FA3E6C9E7C781E
:02108E00000060
:0210900000005E
:020000040030CA
:0100010038C6
:01000200FEFF
:01000300FEFE
:010006003BBE
:00000001FF
