:040000000CEF00F011
:10000800FACF01F0FBCF02F0E9CF03F00EED00F0DC
:1000180078EF00F00600EACF04F0E1CF05F0E2CF78
:1000280006F0D9CF07F0DACF08F0F3CF09F0F4CF14
:100038000AF0F6CF0BF0F7CF0CF0F8CF0DF0F5CFB4
:100048000EF093EC00F00EC0F5FF0DC0F8FF0CC0E9
:10005800F7FF0BC0F6FF0AC0F4FF09C0F3FF08C0A2
:10006800DAFF07C0D9FF06C0E2FF05C0E1FF04C000
:10007800EAFF03C0E9FF02C0FBFF01C0FAFF11005D
:10008800146E000EAC6E000EAB6E14B0AC8814A2E9
:1000980002D0AC8CAB8C14B4AC8E14A602D0AB8856
:1000A80001D0AB8A14B8AC849E9814BAAB8614AC51
:1000B80002D09D8A01D09D9A9E9A14AE02D09D8846
:1000C80001D09D980FC0AFFF10C011F011C012F001
:1000D800136A1250B06EAC8AAB8E949C948EACB8F6
:1000E800ACBE01D0948C120000EE39F00B0EEE6A13
:1000F800E806FDE1C20EF66E010EF76E000EF86E10
:1001080000EE29F010EE10F00900F5CFEEFFE550F3
:10011800E150FAE1000EF86E0001C6EF00F0436FFF
:10012800D8CF3FF0E0CF3EF0FFCF42F0FECF40F017
:10013800FDCF41F0010E3926000E3A223B223C2227
:10014800F2EC00F012000F6E0F507F0BD56E000E10
:10015800D76E000ED66EF2940FAE02D0F28A01D09E
:10016800F29AD58E12000FC0D9FF10C0DAFF000E28
:10017800DF6E20EE01F00F50D9261050DA22000E63
:10018800DF6E1200D388D38AD38C000E106E330E24
:100198000F6E3C0E44EC00F0D4EC00F0FFD7FFD714
:1001A800000E396E000E3A6E000E3B6E000E3C6E6D
:1001B800F28ED20EA7EC00F01200EE82DCD6B276F8
:1001C8007EC2FEF6FA3E6C9E7C780FC0D9FF10C046
:1001D800DAFF000EDF6E120094901200F294120003
:020000040020DA
:08000000FFFFFFFFFFFFFFFF00
:020000040030CA
:0E000000FF081E1EFF8301FF0FC00FE00F4020
:00000001FF
